:020000040800F2
:100000000804002045010008870A00080B0A0008C0
:10001000850A00088D0100085D0B00080000000043
:10002000000000000000000000000000AB0A000813
:100030008F01000800000000A90A0008AD0A0008AE
:100040005F0100085F0100085F0100085F01000810
:100050005F0100085F0100085F0100085F01000800
:100060005F0100085F0100085F0100085F010008F0
:100070005F0100085F0100085F0100085F010008E0
:100080005F0100085F0100085F0100085F010008D0
:100090005F0100085F0100085F0100085F010008C0
:1000A0005F0100085F0100085F0100085F010008B0
:1000B0005F0100085F0100085F0100085F010008A0
:1000C0005F0100085F0100085F0100085F01000890
:1000D0005F0100085F0100085F0100085F01000880
:1000E0005F0100085F0100085F0100085F01000870
:1000F0005F0100085F0100085F0100085F01000860
:100100005F0100085F0100085F0100085F0100084F
:100110005F0100085F0100085F0100085F0100083F
:100120005F0100085F0100085F0100085F0100082F
:10013000DFF80CD000F018F8004800477D0B0008ED
:10014000080400200648804706480047FEE7FEE70F
:10015000FEE7FEE7FEE7FEE7FEE7FEE7FEE7FEE777
:10016000150B000831010008064C074D06E0E06859
:1001700040F0010394E8070098471034AC42F6D3EE
:10018000FFF7DAFFEC0B00080C0C0008FEE77047E5
:1001900031B500F005F9009C0546601C00D0641CD8
:1001A00000F0FEF8401BA042FAD338BD2DE9F84F0D
:1001B000DFF8B8A100220AF1040B144601274FF022
:1001C0000F090BF1040E00BF0B6807FA04F52B4072
:1001D000AB4274D1DFF898C14E68A6EB0C086645B7
:1001E0002BD00DDC032E34D005DC36B3012E19D014
:1001F000022E2FD11BE0112E16D0122E2AD119E07B
:10020000B8F5881F19D006DCB8F5803F15D0B8F5D1
:10021000801F1FD111E0B8F5001F0ED0B8F5041FE4
:1002200018D10AE0CA6815E0CA68121D12E0CA684F
:1002300008320FE0CA680C320CE08A682AB1012A41
:100240004FF0080203D0456104E0042202E005619A
:1002500000E00022FF2B01D8064601E000F1040671
:100260004FEA840501D9A5F12005D6F800C009FAA6
:1002700005F82CEA080C02FA05F54CEA050CC6F85C
:1002800000C04D68ED006AD53A4DAE6946F00106F2
:10029000AE61AD6924F0030605F001050095364D09
:1002A00006EB050CDCF80850A6074FEA167809FAA9
:1002B00008F6B543314EB04202D100261AE04EE0B6
:1002C0002F4EB04201D1012614E02E4EB04201D192
:1002D00002260FE02C4EB04201D103260AE02B4E3D
:1002E000B04201D1042605E0294EB04201D10526D5
:1002F00000E0062606FA08F62E43CCF808604D68A2
:10030000DAF80060ED03554601D51E4300E09E4338
:100310002E604D68AD0305D5DBF800601E43CBF8B9
:10032000006004E0DBF800509D43CBF800504D68BE
:10033000DEF80060ED02754601D51E4300E09E43E5
:100340002E604D68AD0205D5084D0C352E681E4354
:100350002E6004E0054E0C3635689D433560641C04
:10036000102CFFF431AFBDE8F88F0000000401400D
:100370000000111000100240000001400008014080
:10038000000C014000100140001401400018014021
:10039000001C01400AB1016170470904FBE700003D
:1003A0000148006870470000000000200248016812
:1003B000491C01607047000000000020074810B58C
:1003C000016841F010010160032000F07FF8002077
:1003D00000F006F800F018F8002010BD00200240E0
:1003E00010B5044607484FF47A710068B0FBF1F08D
:1003F00000F0F3FA00222146501E00F047F80020DA
:1004000010BD0000040000201E4808B5816941F0BD
:1004100001018161806900F001000090032000F07B
:1004200055F8002211466FF00B0000F02FF8002263
:1004300011466FF00A0000F029F8002211466FF013
:10044000090000F023F800221146501F00F01EF8AA
:1004500000221146101F00F019F800221146901ECC
:1004600000F014F800221146501E00F00FF8064864
:10047000416821F0E0614160416841F08061416084
:1004800008BD00000010024000000140F0B40E4B17
:100490001B680C46C3F30223C3F10705042D00D9E2
:1004A0000425191D072901D2002300E0DB1E0126C7
:1004B00006FA05F1491E214099409E40761E1640DD
:1004C0003143F0BC00F0E0BA0CED00E0064900F06A
:1004D000070208684FF6FF03184040EA0220034A6B
:1004E00010430860704700000CED00E00000FA05C2
:1004F0002DE9F047DFF83C8105460E46D8F80000AC
:1005000000F00700B0420CD2D8F8001021F007012B
:100510003143C8F80010D8F8000000F00700B042DE
:1005200063D12878444C800705D56068A96820F01D
:10053000F000084360602878C00745D0686801284B
:1005400016D02168022816D0890700294DDA616883
:1005500021F0030101436160FFF722FF696807464C
:1005600041F2883001290FD00229814619D027E0B5
:1005700021688903E9E78901E7E700BFFFF710FF7A
:10058000C11B494501D918E081466068C0F381006C
:100590000128F3D118E000BFFFF702FFC11B494556
:1005A0000BD86068C0F381000228F5D10CE000BFD1
:1005B000FFF7F6FEC11B494502D90320BDE8F087CD
:1005C000606810F00C0FF3D1D8F80010404601F02D
:1005D0000701B1420BD9016821F0070131430160E5
:1005E000006800F00700B04201D00120E6E728785B
:1005F000400705D56068E96820F4E0600843606062
:100600002878000706D56068296920F4605040EA20
:10061000C100606000F01CF86168084AC1F3031172
:10062000515CC840064908600020FFF7D9FE002051
:10063000C4E700000020024000100240DC0B00086C
:1006400004000020014800687047000004000020FA
:1006500010B512A385B00FCB8DE80F0013A0144B7B
:10066000006804905A68134802F00C0104290FD066
:1006700008290DD1C2F38344D2031DF8041009D513
:100680005A6804ABC2F340429A5CB0FBF2F04843B4
:1006900005B010BD08484843FAE70000020304050E
:1006A000060708090A0B0C0D0E0F101001020000BE
:1006B0000010024000127A0000093D002DE9F84FB9
:1006C00004460078B94DC00748D06868C0F381007F
:1006D000012807D06868C0F38100022809D1686842
:1006E000C00306D52868800338D5606800286FD01D
:1006F00034E06068B0F5803F0BD010B1B0F5A02FAA
:1007000011D0286820F480302860286820F48020E8
:1007100002E0286840F480302860606888B1FFF704
:100720003FFE064609E0286840F480202860F0E794
:10073000FFF736FE801B642875D828688003F7D53C
:100740000CE0FFF72DFE064605E000BFFFF728FE90
:10075000801B6428F0D828688003F7D42078944E52
:1007600080074FF001094FF000083BD5686810F092
:100770000C0F07D06868C0F38100022809D16868AF
:10078000C00306D42868800714D5206901281FD12A
:1007900010E02069B0B1C6F80090FFF701FE0746EF
:1007A00005E000BFFFF7FCFDC01B0228C4D8286885
:1007B0008007F7D52868616920F0F80040EAC10099
:1007C00028600FE0C6F80080FFF7EAFD074606E064
:1007D000E9E000BFFFF7E4FDC01B022823D828682A
:1007E0008007F7D4207800072CD57248A169D9B1C9
:1007F000C0F80090FFF7D4FD074604E0FFF7D0FDF6
:10080000C01B02280FD8686A8007F7D56A484FF4E2
:10081000FA510068B0FBF1F0009000BF0098411E53
:100820000091FAD20EE080E0C0F80080FFF7B8FD3A
:10083000074604E0FFF7B4FDC01B022875D8686ABC
:100840008007F7D42078400760D5E8690027C0000A
:1008500008D4E86940F08050E861E869012700F0B9
:100860008050009055480168C90513D4016883463B
:1008700041F480710160FFF793FD824606E000BFFE
:10088000FFF78EFDA0EB0A0064284ED8DBF80000CD
:10089000C005F5D5E06801280AD008B1052813D0B5
:1008A000286A20F001002862286A20F0040002E093
:1008B000286A40F001002862E06841F2883B98B164
:1008C000FFF76EFD82460BE0286A40F004002862C4
:1008D000EEE700BFFFF764FDA0EB0A0159455AD8C7
:1008E000286A8007F6D50CE0FFF75AFD824605E03E
:1008F000FFF756FDA0EB0A0159454CD8286A80073E
:10090000F6D41FB1E86920F08050E861E06988B34F
:100910006968C1F38101022945D00228C6F86080C8
:1009200004D0FFF73DFD044638E034E0FFF738FD22
:10093000074604E0FFF734FDC01B02282BD82868C7
:100940008001F7D4206AB0F5803F05D16868A168BE
:1009500020F4003008436860D4E90801084369685E
:1009600021F4741108436860C6F86090FFF718FD21
:10097000044606E015E000BFFFF712FD001B022849
:1009800009D828688001F7D50BE000BFFFF708FD04
:10099000001B022802D90320BDE8F88F28688001D7
:1009A000F4D40020F8E70120F6E700000010024030
:1009B00000004242800442420400002000700040D7
:1009C0004FF0E0210428086903D020F004000861FA
:1009D000704740F00400FAE7704710B5401EB0F1D0
:1009E000807F01D3012010BD4FF0E02460610F2112
:1009F000601700F049F80020A06107202061002066
:100A000010BD10B5FFF7E8FF10BDFEE72DE9F0417E
:100A1000194886B0816941F040018161816901F026
:100A200040010491816941F0080181618069134F9F
:100A300000F008000490002220213846FFF7AAFCAD
:100A4000DFF83C80002220214046FFF7A3FC202451
:100A500001250226694638460396CDE90045FFF791
:100A6000A5FB694640460396CDE90045FFF79EFB8E
:100A700006B0BDE8F08100000010024000180140FF
:100A8000000C0140FEE770470907090E002806DA4E
:100A900000F00F0000F1E02080F8141D704700F115
:100AA000E02080F8001470477047704710B5FFF7DA
:100AB0007DFCBDE81040FFF7A4BF10B590B0022048
:100AC00000900120049010200024059007946846AF
:100AD000FFF7F4FD00B1FEE70F20CDE90A040C9406
:100AE0000D9400210AA80E94FFF702FD00B1FEE765
:100AF000FFF7A8FD4FF47A71B0FBF1F0FFF76DFF3F
:100B00000420FFF75DFF00221146501EFFF7BEFCD8
:100B100010B010BD0D48016841F00101016041684D
:100B20000B4A1140416001680A4A114001600168A6
:100B300021F480210160416821F4FE0141604FF4FD
:100B40001F0181600449C003086070470010024023
:100B50000000FFF8FFFFF6FE08ED00E0FEE702E010
:100B600008C8121F08C1002AFAD170477047002038
:100B700001E001C1121F002AFBD17047FFF71EFCE4
:100B8000FFF79BFFFFF742FF124E134D4FF4967491
:100B9000012220213046FFF7FDFB2046FFF7F8FA3F
:100BA000002220213046FFF7F5FB2046FFF7F0FA40
:100BB000012220212846FFF7EDFB2046FFF7E8FA47
:100BC000002220212846FFF7E5FB2046FFF7E0FA48
:100BD000DEE70000000C01400018014000000000AA
:100BE0000000000001020304060708090C0C0008BD
:100BF00000000020080000005E0B0008140C000834
:100C000008000020000400006E0B00080000000037
:040C100000A24A04F0
:0400000508000131BD
:00000001FF
